:020000040000FA
:1000000068100020A5010000BF010000C101000030
:1000100000000000000000000000000000000000E0
:10002000000000000000000000000000C30100000C
:100030000000000000000000C5010000C701000032
:10004000C9010000C9010000C9010000C901000088
:10005000C901000000000000C9010000C901000042
:10006000C9010000C9010000C9010000C901000068
:10007000C9010000C9010000C9010000C901000058
:10008000C9010000C9010000C9010000C901000048
:10009000C9010000C9010000C9010000C901000038
:1000A000C9010000C90100000000000000000000BC
:1000B0000000000000000000000000000000000040
:1000C00000F002F800F03EF80CA030C80838241800
:1000D0002D18A246671EAB4654465D46AC4201D180
:1000E00000F030F87E460F3E0FCCB6460126334274
:1000F00000D0FB1AA246AB463343184768070000FE
:1001000088070000103A02D378C878C1FAD852079D
:1001100001D330C830C101D504680C6070470000BD
:100120000023002400250026103A01D378C1FBD813
:10013000520700D330C100D50B6070471FB51FBDFB
:1001400010B510BD00F05BF81146FFF7F7FF00F0A7
:1001500037F900F073F803B4FFF7F2FF03BC00F0C7
:1001600079F80000401E00BF00BF00BF00BF00BF05
:1001700000BF00BF00BF00BF00BF00BF00BFF1D184
:1001800070470000401E00BF00BF00BF00BF00BF9F
:1001900000BF00BF00BF00BF00BF00BF00BFF1D164
:1001A0007047000003210C4802680A4302600B48B4
:1001B00002680A4302600A4880470A480047FEE78F
:1001C000FEE7FEE7FEE7FEE7FEE700000648074918
:1001D000074A084B704700002405004054050040C2
:1001E00065020000C10000006800002068100020C7
:1001F00068080020680800207047704770477546FF
:1002000000F024F8AE46050069465346C008C00019
:10021000854618B020B5FFF7D9FF60BC0027490814
:10022000B6460026C0C5C0C5C0C5C0C5C0C5C0C58E
:10023000C0C5C0C5403D49008D46704710B5044655
:10024000C046C0462046FFF786FF10BD00487047F5
:100250000400002001491820ABBEFEE72600020082
:100260007047000010B500F04BF8002805D010488A
:1002700010494860C8131049886100F025F800282B
:1002800002D001200D49886000F070F800280ED0DF
:100290000B480068012807D00A480949086000BFD8
:1002A000074800680128FBD1C0200549486110BDFE
:1002B000DFFF07C000050040006C00400006004062
:1002C00000EC0640759300000C48008CC0B2012879
:1002D00012D10A48808C0007000F00280CD1074873
:1002E000806AF0210840402806D10448C06A0840CE
:1002F000002801D1012070470020FCE7C00F00F06A
:100300001948008CC0B201282CD11748808C0007F6
:10031000000F002826D11448806AF02108400028E8
:1003200006D11148C06A0840002801D10120704759
:100330000D48806AF0210840102806D10A48C06A9A
:100340000840002801D10120F1E70748806AF02128
:100350000840302806D10448C06A0840002801D16E
:100360000120E4E70020E2E7C00F00F01348008C12
:10037000C0B201281FD11148808C0007000F00284F
:1003800019D10E48806AF0210840A02806D10B48F8
:10039000C06A0840002801D1012070470748806AE0
:1003A000F0210840D02806D10448C06A084000283F
:1003B00001D10120F1E70020EFE70000C00F00F0BD
:1003C000002000F061F8012000F05EF8022000F04B
:1003D0005BF8002000F070F8012000F06DF80220BA
:1003E00000F06AF80E2500F0FBF80446002C02D15C
:1003F000022000F071F834E07D20C00000F036F8F3
:100400000123072217A1284600F0A8F90446002C72
:1004100024D1012000F058F8C82000F027F801206E
:1004200000F04AF8C82000F021F8012000F04CF854
:10043000C82000F01BF8012000F03EF8C82000F0B2
:1004400015F8012000F040F8C82000F00FF8012056
:1004500000F032F8C82000F009F802E0002000F0B7
:100460003BF8C9E7686F686F686F210001B505E068
:100470000098401E00900348FFF774FE0098002883
:10048000F6D108BDE7030000F8B501210A460023B4
:100490001F46009354000C439D002C433D022C4307
:1004A000009D2D042C4305252D0707263602AD1986
:1004B0008600AC5100BFF8BD01218140014AD160E6
:1004C000704700000005005001218140014A916001
:1004D000704700000005005010B50146012088401B
:1004E000054B5A6803469343034CA36013460340ED
:1004F000E36000BF10BD000000050050F8B53548AE
:1005000005680020334908600805072109024018E2
:10051000066E31480521090707221202891808666C
:100520000520000711464018406E00902A4805211A
:1005300009078918486600BF0120400627498860DE
:1005400000BF00BF4010886000BF0420FFF71AFE04
:10055000224800698001C00F002807D01F480069A9
:10056000C001C00F002801D0012422E0002412277E
:1005700019E000BF012000061849C86000BF042030
:10058000FFF700FE00BF012000061449886000BF8D
:100590000420FFF7F7FD114800698001C00F002813
:1005A00001D0012403E038467F1E0028E1D100BFBE
:1005B00000BF052000070721090240180666052133
:1005C0000907072212028918009848660148056049
:1005D0002046F8BD004500400D0600000005005013
:1005E00010B5154805210907072212028918086667
:1005F0000521090789184866002010498860C861EC
:1006000018200F4988601920C8603320C004486250
:100610000A4838300B4908610848E4380A49512231
:1006200012018918486001200649886005200449A4
:100630000860FFF763FF10BD0C060000004100409A
:100640000045004000F5014000F00140F8B50546C6
:100650000C4617463B4E002C01D10020F8BD012C62
:1006600006D139483949512212018918486006E0FB
:100670003548083035495122120189184860012057
:100680003349486000203049EC31886001202E4910
:100690001439086045E000BF2B48EC308068002822
:1006A00007D12948EC30406A002802D1701E061E8E
:1006B000F2D100202449EC318860002E03D0084696
:1006C000406A002814D000201F49EC3148622149BB
:1006D00008602149C8630520FFF754FD01201E4929
:1006E000C86305201B490860FFF77AFF0020B5E7C3
:1006F0001848806928706D1C601EC0B2044601282D
:1007000005D1114811495122120189184860002C65
:1007100000D107E01420FFF735FD01200A49143904
:100720000862B8E700BF00BF0748EC304068002807
:10073000FAD000200449EC31486001200449886067
:1007400000BF8BE7204E00001440004000F0014045
:1007500000F5014000450040C04F0040F8B5044698
:100760000E4615461F4600200090002D17DDFFF7AE
:10077000C5FE002813D060100A498860E007C00F4A
:10078000002806D03A4629463046FFF75FFF009022
:1007900005E03A462946304600F006F800900098F9
:1007A000F8BD000080450040F8B504460D461646E9
:1007B000274F002D01D10020F8BD20782549C861C0
:1007C000641C01202449886031E000BF2348C069CF
:1007D000002806D12148406A002802D1781E071E51
:1007E000F4D1002F03D01D48406A002813D0002008
:1007F0001A494862174908601949C8630520FFF77C
:10080000C1FC01201649C863052012490860FFF7A2
:10081000E7FE0020D0E700201049C861681EC0B282
:10082000051E00D104E020780A49C861641CCCE7A9
:1008300000BF002E0AD00020084948600120064968
:10084000486100BF054840680028FBD00120B3E79D
:10085000204E0000004500400040004000410040A4
:10086000C04F004084080000000000200400000089
:10087000040100008808000004000020641000004B
:08088000200100000024F40037
:04000005000000C136
:00000001FF
