:020000040000FA
:1000000068100020650100007F01000081010000F0
:1000100000000000000000000000000000000000E0
:10002000000000000000000000000000830100004C
:1000300000000000000000008501000087010000B2
:100040008901000089010000890100008901000088
:100050008901000000000000250200008901000065
:100060008901000089010000890100008901000068
:100070008901000089010000890100008901000058
:100080008901000089010000890100008901000048
:100090008901000089010000890100008901000038
:1000A000890100008901000000000000000000003C
:1000B0000000000000000000000000000000000040
:1000C00000F002F800F03EF80CA030C80838241800
:1000D0002D18A246671EAB4654465D46AC4201D180
:1000E00000F030F87E460F3E0FCCB6460126334274
:1000F00000D0FB1AA246AB46334318476403000006
:1001000084030000103A02D378C878C1FAD85207A5
:1001100001D330C830C101D504680C6070470000BD
:100120000023002400250026103A01D378C1FBD813
:10013000520700D330C100D50B6070471FB51FBDFB
:1001400010B510BD00F03BF81146FFF7F7FF00F0C7
:1001500041F900F053F803B4FFF7F2FF03BC00F0DD
:1001600059F8000003210C4802680A4302600B485A
:1001700002680A4302600A4880470A480047FEE7CF
:10018000FEE7FEE7FEE7FEE7FEE700000648074958
:10019000074A084B70470000240500405405004002
:1001A00079020000C10000006800002068100020F3
:1001B000680800206808002070477047704775463F
:1001C00000F024F8AE46050069465346C008C0005A
:1001D000854618B020B5FFF7D9FF60BC0027490855
:1001E000B6460026C0C5C0C5C0C5C0C5C0C5C0C5CF
:1001F000C0C5C0C5403D49008D46704710B5044696
:10020000C046C0462046FFF7A6FF10BD0048704715
:100210000800002001491820ABBEFEE726000200BE
:100220007047000010B510480068012802D1002076
:100230000D4908601D21012088400C4B5A68034677
:1002400093430A4CA36013460340E36000BF00BF22
:100250000748007801214840054908700548008892
:10026000401C0449088010BD00610040000500509A
:10027000000000200200002010B500F04BF800281C
:1002800005D0104810494860C8131049886100F033
:1002900025F8002802D001200D49886000F070F890
:1002A00000280ED00B480068012807D00A480949E9
:1002B000086000BF074800680128FBD1C02005493D
:1002C000486110BDDFFF07C000050040006C004022
:1002D0000006004000EC0640759300000C48008CBE
:1002E000C0B2012812D10A48808C0007000F0028F4
:1002F0000CD10748806AF0210840402806D1044804
:10030000C06A0840002801D1012070470020FCE7A6
:10031000C00F00F01948008CC0B201282CD117483A
:10032000808C0007000F002826D11448806AF02135
:100330000840002806D11148C06A0840002801D1B1
:10034000012070470D48806AF0210840102806D12E
:100350000A48C06A0840002801D10120F1E7074897
:10036000806AF0210840302806D10448C06A08405D
:10037000002801D10120E4E70020E2E7C00F00F0EF
:100380001348008CC0B201281FD11148808C00078F
:10039000000F002819D10E48806AF0210840A028DB
:1003A00006D10B48C06A0840002801D101207047DF
:1003B0000748806AF0210840D02806D10448C06A66
:1003C0000840002801D10120F1E70020EFE70000FC
:1003D000C00F00F01CB501240325002000902B461F
:1003E000024601460190204600F026F800BF1D2479
:1003F000002000900346012211460190204600F0A3
:100400001BF800BF0620002805DBC206D20E012122
:100410009140054A116000BF044805490861012068
:100420000449486000BFFEE700E100E0010102006E
:100430000065004000630040F0B5059C55000D4389
:100440009E00354326023543069E36043543052675
:10045000360707273F02F6198700F551F0BD000067
:1004600080040000000000200800000004010000DB
:100470008804000008000020601000002001000037
:08048000000000000024F4005C
:04000005000000C136
:00000001FF
